:020000040800F2
:10000000000002208944000891380008993800084F
:10001000A1380008A9380008B13800080000000025
:10002000000000000000000000000000B9380008D7
:10003000C738000800000000D5380008E338000881
:10004000D9440008D9440008D9440008D94400081C
:10005000D9440008D9440008D9440008D94400080C
:10006000D9440008D9440008D9440008F1380008F0
:1000700005390008D944000819390008D944000896
:100080002D39000841390008D9440008D944000836
:10009000D9440008D9440008D9440008D9440008CC
:1000A000D9440008D9440008D9440008D9440008BC
:1000B000D9440008D9440008D9440008553900083B
:1000C00069390008D9440008D9440008D944000817
:1000D000D94400087D39000891390008A539000885
:1000E000D9440008D9440008D9440008D94400087C
:1000F000D9440008D9440008D9440008B939000897
:10010000D9440008D9440008D9440008D94400085B
:10011000D9440008D9440008D9440008D94400084B
:10012000D9440008D9440008CD390008D944000852
:10013000D94400080000000000000000D944000875
:10014000D9440008D9440008D9440008E13900081E
:10015000D9440008F5390008D9440008093A0008D4
:10016000D9440008D9440008D9440008D9440008FB
:10017000D9440008D9440008000000000000000035
:08018000D9440008D94400082D
:1001900010B5054C237833B9044B13B10448AFF3C1
:1001A00000800123237010BDFC020020000000002D
:1001B000005F010808B5034B1BB103490348AFF3C7
:1001C000008008BD0000000000030020005F01085F
:1001D00001F0FF01102A2BDB10F0070F08D010F8F8
:1001E000013B013A8B422DD010F0070F42B3F6D1FC
:1001F000F0B441EA012141EA014122F007047FF015
:1002000000070023F0E80256083C85EA010586EA6B
:10021000010685FA47F5A3FA87F586FA47F6A5FAA7
:1002200087F68EB9EED1F0BC01F0FF0102F00702B3
:1002300032B110F8013B013A83EA010313B1F8D15E
:100240000020704701387047002D06BF354603383F
:10025000073815F0010F07D1013015F4807F02BF78
:10026000013015F4C03F0130F0BC0138704700BFC9
:10027000034613F8012B002AFBD1181A01387047E6
:1002800081F0004102E000BF83F0004330B54FEA47
:1002900041044FEA430594EA050F08BF90EA020FB4
:1002A0001FBF54EA000C55EA020C7FEA645C7FEA47
:1002B000655C00F0E2804FEA5454D4EB5555B8BF6A
:1002C0006D420CDD2C4480EA020281EA030382EADB
:1002D000000083EA010180EA020281EA0303362D6D
:1002E00088BF30BD11F0004F4FEA01314FF4801C40
:1002F0004CEA113102D0404261EB410113F0004F52
:100300004FEA03334CEA133302D0524263EB430308
:1003100094EA050F00F0A780A4F10104D5F1200EA6
:100320000DDB02FA0EFC22FA05F2801841F1000101
:1003300003FA0EF2801843FA05F359410EE0A5F1D5
:1003400020050EF1200E012A03FA0EFC28BF4CF006
:10035000020C43FA05F3C01851EBE37101F00045BC
:1003600007D54FF0000EDCF1000C7EEB00006EEBC9
:100370000101B1F5801F1BD3B1F5001F0CD3490853
:100380005FEA30004FEA3C0C04F101044FEA4452AA
:1003900012F5800F80F09A80BCF1004F08BF5FEA31
:1003A000500C50F1000041EB045141EA050130BD11
:1003B0005FEA4C0C404141EB0101013C28BFB1F523
:1003C000801FE9D291F0000F04BF01460020B1FA6E
:1003D00081F308BF2033A3F10B03B3F120020CDA41
:1003E0000C3208DD02F1140CC2F10C0201FA0CF01F
:1003F00021FA02F10CE002F11402D8BFC2F1200C84
:1004000001FA02F120FA0CFCDCBF41EA0C01904039
:10041000E41AA2BF01EB0451294330BD6FEA040482
:100420001F3C1CDA0C340EDC04F11404C4F120026D
:1004300020FA04F001FA02F340EA030021FA04F37F
:1004400045EA030130BDC4F10C04C4F1200220FAD6
:1004500002F001FA04F340EA0300294630BD21FA14
:1004600004F0294630BD94F0000F83F4801306BFDA
:1004700081F480110134013D4EE77FEA645C18BFCE
:100480007FEA655C29D094EA050F08BF90EA020F65
:1004900005D054EA000C04BF1946104630BD91EA5D
:1004A000030F1EBF0021002030BD5FEA545C05D160
:1004B0004000494128BF41F0004130BD14F580049F
:1004C0003CBF01F5801130BD01F0004545F0FE4113
:1004D00041F470014FF0000030BD7FEA645C1ABF48
:1004E000194610467FEA655C1CBF0B46024650EA7F
:1004F000013406BF52EA033591EA030F41F40021AB
:1005000030BD00BF90F0000F04BF0021704730B530
:100510004FF4806404F132044FF000054FF0000105
:1005200050E700BF90F0000F04BF0021704730B5C6
:100530004FF4806404F1320410F0004548BF40429B
:100540004FF000013EE700BF42004FEAE2014FEAF0
:1005500031014FEA02701FBF12F07F4393F07F4FCB
:1005600081F06051704732F07F4208BF704793F0CE
:100570007F4F04BF41F40021704730B54FF46074E1
:1005800001F0004521F000411CE700BF50EA0102E4
:1005900008BF704730B54FF000050AE050EA01028D
:1005A00008BF704730B511F0004502D5404261EBFD
:1005B00041014FF4806404F132045FEA915C3FF43E
:1005C000D8AE4FF003025FEADC0C18BF03325FEADB
:1005D000DC0C18BF033202EBDC02C2F1200300FA8C
:1005E00003FC20FA02F001FA03FE40EA0E0021FAB1
:1005F00002F11444BDE600BF70B54FF0FF0C4CF49F
:10060000E06C1CEA11541DBF1CEA135594EA0C0F50
:1006100095EA0C0F00F0DEF82C4481EA030621EA8B
:100620004C5123EA4C5350EA013518BF52EA0335C6
:1006300041F4801143F4801338D0A0FB02CE4FF078
:100640000005E1FB02E506F00042E0FB03E54FF0A8
:100650000006E1FB03569CF0000F18BF4EF0010EA0
:10066000A4F1FF04B6F5007F64F5407404D25FEA9C
:100670004E0E6D4146EB060642EAC62141EA55514F
:100680004FEAC52040EA5E504FEACE2EB4F1FD0C91
:1006900088BFBCF5E06F1ED8BEF1004F08BF5FEA0F
:1006A000500E50F1000041EB045170BD06F00046C1
:1006B00046EA010140EA020081EA0301B4EB5C046E
:1006C000C2BFD4EB0C0541EA045170BD41F4801166
:1006D0004FF0000E013C00F3AB8014F1360FDEBF8B
:1006E000002001F0004170BDC4F10004203C35DA67
:1006F0000C341BDC04F11404C4F1200500FA05F3EA
:1007000020FA04F001FA05F240EA020001F000428A
:1007100021F0004110EBD37021FA04F642EB060100
:100720005EEA430E08BF20EAD37070BDC4F10C042A
:10073000C4F1200500FA04F320FA05F001FA04F2EE
:1007400040EA020001F0004110EBD37041F10001DA
:100750005EEA430E08BF20EAD37070BDC4F12005E5
:1007600000FA05F24EEA020E20FA04F301FA05F24D
:1007700043EA020321FA04F001F0004121FA04F2F5
:1007800020EA020000EBD3705EEA430E08BF20EAC5
:10079000D37070BD94F0000F0FD101F000464000FF
:1007A00041EB010111F4801F08BF013CF7D041EA81
:1007B000060195F0000F18BF704703F00046520085
:1007C00043EB030313F4801F08BF013DF7D043EA56
:1007D0000603704794EA0C0F0CEA135518BF95EA0C
:1007E0000C0F0CD050EA410618BF52EA4306D1D193
:1007F00081EA030101F000414FF0000070BD50EAB2
:10080000410606BF1046194652EA430619D094EA3B
:100810000C0F02D150EA013613D195EA0C0F05D125
:1008200052EA03361CBF104619460AD181EA030179
:1008300001F0004141F0FE4141F470014FF0000031
:1008400070BD41F0FE4141F4780170BD70B54FF0CC
:10085000FF0C4CF4E06C1CEA11541DBF1CEA13554C
:1008600094EA0C0F95EA0C0F00F0A7F8A4EB05042E
:1008700081EA030E52EA03354FEA013100F0888025
:100880004FEA03334FF0805545EA131343EA1263EE
:100890004FEA022245EA111545EA10654FEA0026A3
:1008A0000EF000419D4208BF964244F1FD0404F55C
:1008B000407402D25B084FEA3202B61A65EB0305B8
:1008C0005B084FEA32024FF480104FF4002CB6EB75
:1008D000020E75EB030E22BFB61A754640EA0C00F5
:1008E0005B084FEA3202B6EB020E75EB030E22BF35
:1008F000B61A754640EA5C005B084FEA3202B6EB76
:10090000020E75EB030E22BFB61A754640EA9C0034
:100910005B084FEA3202B6EB020E75EB030E22BF04
:10092000B61A754640EADC0055EA060E18D04FEAC2
:10093000051545EA16754FEA06164FEAC30343EA62
:1009400052734FEAC2025FEA1C1CC0D111F4801F2F
:100950000BD141EA00014FF000004FF0004CB6E728
:1009600011F4801F04BF01430020B4F1FD0C88BFC7
:10097000BCF5E06F3FF6AFAEB5EB030C04BFB6EBD2
:10098000020C5FEA500C50F1000041EB045170BDC5
:100990000EF0004E4EEA113114EB5C04C2BFD4EBF2
:1009A0000C0541EA045170BD41F480114FF0000E76
:1009B000013C90E645EA060E8DE60CEA135594EAF2
:1009C0000C0F08BF95EA0C0F3FF43BAF94EA0C0FF5
:1009D0000AD150EA01347FF434AF95EA0C0F7FF46A
:1009E00025AF104619462CE795EA0C0F06D152EABE
:1009F00003353FF4FDAE1046194622E750EA4106A2
:100A000018BF52EA43067FF4C5AE50EA41047FF4B2
:100A10000DAF52EA43057FF4EBAE12E74FF0FF3C17
:100A200006E000BF4FF0010C02E000BF4FF0010CE8
:100A30004DF804CD4FEA410C7FEA6C5C4FEA430C61
:100A400018BF7FEA6C5C1BD001B050EA410C0CBFB0
:100A500052EA430C91EA030F02BF90EA020F002012
:100A6000704710F1000F91EA030F58BF994208BF79
:100A700090422CBFD8176FEAE37040F00100704736
:100A80004FEA410C7FEA6C5C02D150EA013C07D18D
:100A90004FEA430C7FEA6C5CD6D152EA033CD3D0D8
:100AA0005DF8040B704700BF8446104662468C46D2
:100AB0001946634600E000BF01B5FFF7B7FF002805
:100AC00048BF10F1000F01BD4DF808EDFFF7F4FF2E
:100AD0000CBF012000205DF808FB00BF4DF808EDB9
:100AE000FFF7EAFF34BF012000205DF808FB00BFDC
:100AF0004DF808EDFFF7E0FF94BF012000205DF8FE
:100B000008FB00BF4DF808EDFFF7CEFF94BF0120B2
:100B100000205DF808FB00BF4DF808EDFFF7C4FFAB
:100B200034BF012000205DF808FB00BF4FEA410CF4
:100B30007FEA6C5C02D150EA013C0AD14FEA430CD7
:100B40007FEA6C5C02D152EA033C02D14FF0000014
:100B500070474FF0010070474FEA410212F5001252
:100B600015D211D56FF47873B3EB625212D94FEAF4
:100B7000C12343F0004343EA505311F0004F23FADE
:100B800002F018BF404270474FF00000704750EA33
:100B9000013005D111F0004008BF6FF000407047F0
:100BA0004FF00000704700BF4A0011D212F500124A
:100BB00011D20DD56FF47873B3EB62520ED44FEAB5
:100BC000C12343F0004343EA505323FA02F0704735
:100BD0004FF00000704750EA013002D14FF0FF3073
:100BE00070474FF0000070474FEA4102B2F1E04316
:100BF00024BFB3F5001CDCF1FE5C0DD901F0004C04
:100C00004FEAC0024CEA5070B2F1004F40EB830053
:100C100008BF20F00100704711F0804F21D113F17F
:100C20003872BCBF01F00040704741F480114FEAB8
:100C30005252C2F11802C2F1200C10FA0CF320FA41
:100C400002F018BF40F001004FEAC1234FEAD3235E
:100C500003FA0CFC40EA0C0023FA02F34FEA4303C8
:100C6000CCE77FEA625307D150EA01331EBF4FF051
:100C7000FE4040F44000704701F0004040F0FE406C
:100C800040F40000704700BF53B94AB9002908BFBB
:100C900000281CBF4FF0FF314FF0FF3000F0BEB90D
:100CA000ADF1080C6DE904CE00F03CF8DDF804E08D
:100CB000DDE9022304B0704738B500220023044662
:100CC0000D46FFF70BFF28B920462946BDE83840FE
:100CD00000F00AB8204605F1004100F005F8404256
:100CE00061EB410138BD00BFD0B50C4B0022064678
:100CF0000F46FFF781FCFFF757FF0446FFF702FCA2
:100D0000074B0022FFF778FC02460B463046394677
:100D1000FFF7BAFAFFF748FF2146D0BD0000F03DCB
:100D20000000F0412DE9F047089D0F4604468C462F
:100D3000002B48D18A42164661D9B2FA82F34BB1F0
:100D4000C3F1200201FA03FC20FA02F29E4042EABB
:100D50000C0C9C404FEA164EB7B2BCFBFEF1220CC5
:100D60000EFB11CC42EA0C4201FB07F0904209D97C
:100D7000B21801F1FF3C80F0EE80904240F2EB802F
:100D800002393244121AA4B2B2FBFEF00EFB10225A
:100D900044EA024400FB07F7A74209D9341900F1DD
:100DA000FF3280F0DA80A74240F2D7803444023824
:100DB00040EA0140E41B00211DB1DC400023C5E9ED
:100DC0000043BDE8F0878B4206D90DB1C5E90001AB
:100DD00000210846BDE8F087B3FA83F1002948D125
:100DE000BB4202D3824200F20781841A67EB0302FE
:100DF00001209446002DE4D0C5E9004CE1E7002A2B
:100E000000F09280B2FA82F3002B40F0A8808A1A98
:100E10004FEA164E1FFA86FC0121200CB2FBFEF7AA
:100E20000EFB172240EA02420CFB07F0904207D962
:100E3000B21807F1FF3802D2904200F2E280474632
:100E4000121AA4B2B2FBFEF00EFB102244EA0244D6
:100E50000CFB00FCA44507D9341900F1FF3202D283
:100E6000A44500F2CB801046A4EB0C0440EA0740F6
:100E7000A2E7C1F120068B4022FA06FC4CEA030CE3
:100E800007FA01F420FA06F3F7404FEA1C4923431E
:100E900000FA01F81FFA8CFEB7FBF9F01C0C09FBF5
:100EA000107744EA074400FB0EF7A74202FA01F26A
:100EB0000AD91CEB040400F1FF3A80F09B80A742A2
:100EC00040F2988002386444E41B9FB2B4FBF9F30B
:100ED00009FB134447EA044403FB0EFEA64509D967
:100EE0001CEB040403F1FF3780F08280A6457FD914
:100EF000023B644443EA0040A4EB0E04A0FB02E77B
:100F0000BC427346B94663D360D05DB1B8EB03020F
:100F100064EB090404FA06F622FA01F31E43CC40FE
:100F2000C5E9006400214CE76208480842EAC17143
:100F30000B0C43EA00438AB242EA0342B3FBF6F1E8
:100F4000E407B4463746B6461F23B0FBF6F0D21B83
:100F500041EA004161E7614614E7104628E7C3F122
:100F6000200120FA01F29E4027FA01F19F403A4306
:100F70004FEA164E1FFA86FCB1FBFEF70EFB171068
:100F8000110C41EA004107FB0CF8884504FA03F410
:100F90003AD9711807F1FF3001D288451FD8A1EB6B
:100FA0000801B1FBFEF808FB0CF70EFB181192B21A
:100FB00042EA0142BA422FD2B21808F1FF31C6D23A
:100FC000BA42C4D2A8F102013244C0E7F0459CD233
:100FD000BEEB020367EB0C070138B94695E7A6EBB9
:100FE00008084144B81EB1FBFEF808FB0CF7DCE72B
:100FF0003B467FE7504667E70846FBE63444023845
:1010000032E7023F32441BE7A1EB08013846B1FB4F
:10101000FEF808FB0CF7C8E7414698E7704700BFA9
:1010200080B582B000AF00237B602F4B1B6B2E4A34
:1010300043F4800313632C4B1B6B03F480037B602E
:101040007B6800233B60284B1B6B274A43F400134B
:101050001363254B1B6B03F400133B603B680022BA
:1010600000210B2003F0ABFB0B2003F0C4FB00229C
:1010700000210C2003F0A3FB0C2003F0BCFB00229A
:1010800000210E2003F09BFB0E2003F0B4FB002296
:101090000021102003F093FB102003F0ACFB002292
:1010A0000021112003F08BFB112003F0A4FB002290
:1010B00000212F2003F083FB2F2003F09CFB002254
:1010C00000213A2003F07BFB3A2003F094FB00223E
:1010D0000021452003F073FB452003F08CFB00BF8B
:1010E0000837BD4680BD00BF0038024080B582B0E1
:1010F00000AF0021624809F05FFC0421604809F05C
:101100005BFC08215E4809F057FC0C215C4809F0A3
:1011100053FC5B4B1B6800225A63594B1B6800222F
:101120009A63574B1B680022DA63554B1B680022F9
:101130001A640023FB7113E0524B1B88B3F5487F00
:1011400009D9504B1B8840F69702934203D8FB798C
:101150000133FB7101E00023FB710A2003F030FA38
:10116000FB79132BE8D9474B1B88B3F5E16F45D9C1
:10117000434B1B684FF4FA625A63414B1B684FF4B0
:10118000FA629A633E4B1B684FF4FA62DA633C4B97
:101190001B684FF4FA621A640023BB71394B1B8839
:1011A000B3F5966F0BD2374B1B88B3F5487F06D942
:1011B000BB790133BB71BB791E2B02D905E000233B
:1011C000BB710A2003F0FCF9E8E72D4B1B684FF4D4
:1011D00061725A632A4B1B684FF461729A63284B01
:1011E0001B684FF46172DA63254B1B684FF4617220
:1011F0001A644FF47A6003F0E3F92FE0204B1B6888
:101200004FF461725A631E4B1B684FF461729A630C
:101210001B4B1B684FF46172DA63194B1B684FF468
:1012200061721A644FF47A6003F0CAF916E0144B45
:101230001B684FF461725A63114B1B684FF4617263
:101240009A630F4B1B684FF46172DA630C4B1B6897
:101250004FF461721A640A2003F0B2F9094B1B883B
:10126000B3F5966FE3D8084809F0E4FA064B1B681B
:101270005B6A064A136000BF0837BD4680BD00BFE9
:101280001808002020000020D00700203C03002088
:1012900080B590B002AF984B1B685B6A7B61974B3F
:1012A0001B687A69D31A3B613B6907EE903AB8EE46
:1012B000677ADFED936AC7EE267AC7ED0D7A8F4A1B
:1012C0007B691360D7ED0D7A9FED8E7AF4EEC77AC5
:1012D000F1EE10FA01D58C4B7B63D7ED0D7A9FEDC3
:1012E0008B7AF4EEC77AF1EE10FA01DD884B7B635E
:1012F000884B1B8818461E2300936FF01D034FF484
:10130000FA624FF47A7100F0C5FE07EE900AF8EE2B
:10131000E77AC7ED0C7A804B1B8818466FF01D03E7
:1013200000931E234FF4FA624FF47A7100F0B2FE7C
:1013300007EE900AF8EEE77AC7ED0B7A774B1B8839
:1013400018466FF06303009364234FF4FA624FF47E
:101350007A7100F09FFE07EE900AF8EEE77AC7ED8B
:101360000A7AD7ED0C7AB8EE007AF4EEC77AF1EE8D
:1013700010FA0BDDD7ED0C7AB0EE007AF4EEC77AF6
:10138000F1EE10FA02D54FF000033B63D7ED0B7A74
:10139000B8EE007AF4EEC77AF1EE10FA0BDDD7ED75
:1013A0000B7AB0EE007AF4EEC77AF1EE10FA02D5BD
:1013B0004FF00003FB62D7ED0A7ABAEE0E7AF4EE34
:1013C000C77AF1EE10FA0BDDD7ED0A7AB2EE0E7A9B
:1013D000F4EEC77AF1EE10FA02D54FF00003BB62CB
:1013E000D7ED0A7AF5EE407AF1EE10FA05D14C4BC2
:1013F0001B8840F21A42934208D84A4B1B684A4A5B
:1014000013604A4B4FF000021A60B4E0464B93ED74
:10141000007A444BD3ED007A77EE677AC7ED097A0C
:10142000D7ED097A9FED427AF4EEC77AF1EE10FA21
:1014300008DDD7ED097A9FED3F7A77EEC77AC7EDE1
:10144000097A10E0D7ED097A9FED3B7AF4EEC77A7E
:10145000F1EE10FA07D5D7ED097A9FED367A77EEDF
:10146000877AC7ED097A97ED097AD7ED0D7A27EEDD
:10147000277A2E4BD3ED007A77EE277A2B4BC3EDEC
:10148000007A2A4BD3ED007A9FED2C7AF4EEC77ADE
:10149000F1EE10FA03DD254B294A1A600CE0234BCC
:1014A000D3ED007A9FED277AF4EEC77AF1EE10FAC9
:1014B00002D51E4B244A1A60244B93ED007AD7EDD7
:1014C000097A27EE277A224BD3ED006A174BD3ED2A
:1014D000007A66EEA77A77EE277AC7ED0A7AD7ED1B
:1014E0000A7A9FED1C7AF4EEC77AF1EE10FA37DD36
:1014F000194BBB623FE000BFD00700203C03002037
:10150000002474496F12033A6F12033A0AD7233C3E
:101510000AD7233C1C0000201E00002022000020CF
:101520002000002034070020400300204403002056
:10153000000034430000B443000034C300004842BC
:1015400000004842000048C2000048C210000020CD
:10155000280300200000704200007042000070C2AA
:10156000D7ED0A7A1FED037AF4EEC77AF1EE10FA9E
:1015700001D5B84BBB62B84BD3ED007A97ED0B7A2F
:1015800077EE677AC7ED037AB44BD3ED007A97ED27
:101590000C7A77EE677AC7ED027AB14BD3ED007A19
:1015A00097ED0A7A77EE677AC7ED017A4FF000037C
:1015B0003B624FF00003FB614FF00003BB61A94B9E
:1015C0001B8840F21A42934240F22081A64B93F9C5
:1015D0000030002B17D0A44B93F90030002B06DD10
:1015E000D7ED037AF5EEC07AF1EE10FA0BD49E4BEC
:1015F00093F90030002B14DAD7ED037AF5EEC07AB8
:10160000F1EE10FA0DDD97ED037AD7ED0D7A27EEA6
:10161000277A964BD3ED007A77EE277A934BC3ED7A
:10162000007A924BD3ED007A9FED917AF4EEC77A6F
:10163000F1EE10FA03DD8D4B8E4A1A600CE08B4BF5
:10164000D3ED007A9FED9B7AF4EEC77AF1EE10FAB3
:1016500002D5864B884A1A60884B93F90030002BDC
:1016600017D0864B93F90030002B06DDD7ED027AB8
:10167000F5EEC07AF1EE10FA0BD4804B93F90030FE
:10168000002B14DAD7ED027AF5EEC07AF1EE10FAFB
:101690000DDD97ED027AD7ED0D7A27EE277A784B9C
:1016A000D3ED007A77EE277A754BC3ED007A744B51
:1016B000D3ED007A9FED6E7AF4EEC77AF1EE10FA70
:1016C00003DD6F4B6B4A1A600CE06D4BD3ED007A73
:1016D0009FED787AF4EEC77AF1EE10FA02D5684BF6
:1016E000654A1A60674B93F90030002B17D0654BA1
:1016F00093F90030002B06DDD7ED017AF5EEC07AC4
:10170000F1EE10FA0BD45F4B93F90030002B14DA92
:10171000D7ED017AF5EEC07AF1EE10FA0DDD97ED16
:10172000017AD7ED0D7A27EE277A574BD3ED007A61
:1017300077EE277A544BC3ED007A534BD3ED007A02
:101740009FED4B7AF4EEC77AF1EE10FA03DD4E4BC3
:10175000484A1A600CE04C4BD3ED007A9FED557A65
:10176000F4EEC77AF1EE10FA02D5474B424A1A60FE
:10177000464B93ED007AD7ED037A27EE277A444B58
:10178000D3ED006A394BD3ED007A66EEA77A37EED7
:10179000277A404BD3ED006A3F4BD3ED007A66EEDB
:1017A000A77A77EE677AC7ED087A3C4B93ED007A1B
:1017B000D7ED027A27EE277A394BD3ED006A304B0A
:1017C000D3ED007A66EEA77A37EE277A354BD3ED64
:1017D000006A354BD3ED007A66EEA77A77EE677A2A
:1017E000C7ED077A314B93ED007AD7ED017A27EEFA
:1017F000277A2F4BD3ED006A234BD3ED007A66EEA8
:10180000A77A77EE277AC7ED067A14E0174B4FF0E8
:1018100000021A601A4B4FF000021A601A4B4FF088
:1018200000021A60104B00221A70144B00221A702A
:10183000144B00221A70D7ED087A9FED0D7AF4EE62
:10184000C77AF1EE10FA37DD0A4B3B62064B0122F4
:101850001A7043E0000070C22C07002030070020FF
:101860005807002020000020380300202C0300200F
:101870000000C8430000C8430000C8C3390300206B
:10188000300300203A030020340300200000002031
:101890001803002004000020540700200800002046
:1018A0001C0300200C000020500700202003002013
:1018B000240300200000C8C3D7ED087A1FED037A87
:1018C000F4EEC77AF1EE10FA05D59D4B3B629D4BC5
:1018D000FF221A7002E09B4B00221A70D7ED077AA4
:1018E0009FED997AF4EEC77AF1EE10FA05DD974B89
:1018F000FB61974B01221A7011E0D7ED077A9FED3B
:10190000957AF4EEC77AF1EE10FA05D58C4BFB61AF
:101910008F4BFF221A7002E08D4B00221A70D7ED18
:10192000067A9FED897AF4EEC77AF1EE10FA05DDBA
:10193000864BBB61884B01221A7011E0D7ED067A05
:101940009FED847AF4EEC77AF1EE10FA05D57C4B60
:10195000BB61814BFF221A7002E07F4B00221A709C
:101960007E4B1B8840F21A42934240F295807B4B9B
:101970001B8818464FF4FA63009340F2B6334FF4D5
:10198000FA6240F21A4100F085FB07EE900AF8EE89
:10199000E77AC7ED007A97ED007AD7ED087A37EE4F
:1019A000277AD7ED077A37EE677AD7ED067A77EEA2
:1019B000677AFDEEE77A17EE903A1AB2684B1A8012
:1019C00097ED007AD7ED087A37EE677AD7ED077A88
:1019D00037EE677AD7ED067A77EE277AFDEEE77A6B
:1019E00017EE903A1AB25F4B1A8097ED007AD7ED56
:1019F000087A37EE277AD7ED077A37EE277AD7EDD0
:101A0000067A77EE277AFDEEE77A17EE903A1AB269
:101A1000554B1A8097ED007AD7ED087A37EE677A42
:101A2000D7ED077A37EE277AD7ED067A77EE677A21
:101A3000FDEEE77A17EE903A1AB24C4B1A80484BFB
:101A4000B3F9003040F2B532934203DC444B40F22C
:101A5000B6321A80434BB3F9003040F2B5329342AC
:101A600003DC404B40F2B6321A803F4BB3F90030F2
:101A700040F2B532934203DC3B4B40F2B6321A805F
:101A80003A4BB3F9003040F2B532934214DC374B95
:101A900040F2B6321A800FE0314B4FF461721A8077
:101AA000304B4FF461721A802F4B4FF461721A80E1
:101AB0002E4B4FF461721A80294BB3F90030B3F505
:101AC000FA6F03DD264B4FF4FA621A80254BB3F907
:101AD0000030B3F5FA6F03DD224B4FF4FA621A803F
:101AE000214BB3F90030B3F5FA6F03DD1E4B4FF411
:101AF000FA621A801D4BB3F90030B3F5FA6F03DDBB
:101B00001A4B4FF4FA621A80154BB3F90020184BA8
:101B10001B685A63134BB3F90020154B1B689A637B
:101B2000114BB3F90020124B1B68DA630F4BB3F96A
:101B300000200F4B1B681A6400BF3837BD4680BDBC
:101B40000000C8C3380300200000C8430000C84399
:101B5000390300200000C8C33A0300202000002001
:101B60001400002016000020180000201A00002099
:101B70001808002080B58AB000AF07F114030022D6
:101B80001A605A609A60DA601A6100233B612D4B3B
:101B90001B6B2C4A43F0800313632A4B1B6B03F02F
:101BA00080033B613B690023FB60264B1B6B254A8E
:101BB00043F001031363234B1B6B03F00103FB6032
:101BC000FB680023BB601F4B1B6B1E4A43F00203E4
:101BD00013631C4B1B6B03F00203BB60BB68002349
:101BE0007B60184B1B6B174A43F004031363154BC0
:101BF0001B6B03F004037B607B6800233B60114B8D
:101C00001B6B104A43F0080313630E4B1B6B03F06E
:101C100008033B603B68002204210B4803F0B2FB41
:101C200004237B610123BB610023FB6100233B6232
:101C300007F114031946044803F008FA00BF2837D7
:101C4000BD4680BD00380240000C024080B500AFA8
:101C5000124B134A1A60114B124A5A600F4B002262
:101C60009A600E4B0022DA600C4B4FF480421A61EE
:101C70000A4B00225A61094B00229A61074B00224D
:101C8000DA61064B00221A62044803F095FB034612
:101C9000002B01D000F0F8F900BF80BD4803002000
:101CA00000540040A086010080B58AB000AF786083
:101CB00007F1140300221A605A609A60DA601A6110
:101CC0007B681B68504A934240F0998000233B6137
:101CD0004E4B1B6B4D4A43F0020313634B4B1B6B84
:101CE00003F002033B613B69C0237B611223BB61AC
:101CF0000023FB6103233B6204237B6207F114038F
:101D00001946434803F0A2F90023FB603F4B1B6CCC
:101D10003E4A43F4001313643C4B1B6C03F4001362
:101D2000FB60FB683B4B3C4A1A603A4B4FF0007239
:101D30005A60384B00229A60364B0022DA60354BED
:101D40004FF480621A61334B00225A61314B0022FA
:101D50009A61304B0022DA612E4B4FF400321A6246
:101D60002C4B00225A622B4802F060FD0346002BE8
:101D700001D000F089F97B68264A9A63254A7B687E
:101D80009363264B264A1A60244B4FF000725A6028
:101D9000224B40229A60214B0022DA601F4B4FF405
:101DA00080621A611D4B00225A611C4B00229A610D
:101DB0001A4B0022DA61194B00221A62174B0022DB
:101DC0005A62164802F032FD0346002B01D000F0A3
:101DD0005BF97B68114A5A63104A7B68936300225F
:101DE00000211F2002F0EBFC1F2002F004FD002266
:101DF0000021202002F0E3FC202002F0FCFC00BFC8
:101E00002837BD4680BD00BF005400400038024066
:101E1000000402409C03002010600240FC030020EC
:101E2000B86002402DE9B0439EB004AF02F056FB0B
:101E300000F0A6F8FFF79EFEFFF7F2F8FFF706FFA7
:101E400002F038F802F064F802F08CF801F00AFFB2
:101E50000EF03AF902F0B0F801F0B8FE01F072FCB1
:101E600000F034F9FFF742F900F0E6FD00F0BCFCA9
:101E700001F0ACF800F084FF00F0A0FA00F0C2FC22
:101E800000F080FE00F0C0FB00F096FF01F0A0F92A
:101E9000FFF7FEF9304B1B780133DAB22E4B1A7084
:101EA0002D4B1B78312B53D92B4B00221A702B4B07
:101EB00093F84130DBB2202B28D1294B1B68184600
:101EC000FEF742FB80468946264B1B681846FEF704
:101ED0003BFB04460D46244B1B681846FEF734FBBB
:101EE00002460B46CDE90223CDE9004542464B466A
:101EF0001E491F4810F0B4F91D48FEF7B9F9034612
:101F00009BB21A461A49154809F0B0FB194B1B88B9
:101F10001C46184B5B881D46164B9B881A46154B72
:101F2000DB881946144B1B88381D029301910092DF
:101F30002B462246114910F093F93B1D1846FEF737
:101F400097F903469AB23B1D114618460EF07AF9EE
:101F5000022002F035FB91E7C00400203809002080
:101F6000300700202C07002034070020185F0108EC
:101F70005C040020C404002020000020405F010811
:101F800080B594B000AF07F120033022002118463D
:101F900010F0CCF907F10C0300221A605A609A6025
:101FA000DA601A610023BB60284B1B6C274A43F0A0
:101FB00080531364254B1B6C03F08053BB60BB68DC
:101FC00000237B60224B1B68214A43F4804313604B
:101FD0001F4B1B6803F480437B607B6801233B62DB
:101FE0004FF480337B620223BB634FF48003FB63B7
:101FF00008233B644FF4A8737B640223BB6407236C
:10200000FB6407F12003184607F05AF90346002B3A
:1020100001D000F039F80F23FB6002233B6100235D
:102020007B614FF4A053BB614FF48053FB6107F118
:102030000C030521184607F0BBFB0346002B01D01B
:1020400000F022F800BF5037BD4680BD0038024086
:102050000070004080B582B000AF78607B681B687C
:10206000074A934201D100F03FF87B681B68054A9C
:10207000934201D100F0EEFC00BF0837BD4680BDA1
:10208000001001400048004080B400AF72B600BFAD
:1020900000BFFDE780B485B000AFF860B9607A603A
:1020A0003B60FA68BB68D31AB9693A688A1A03FBBD
:1020B00002F27968BB68CB1A92FBF3F23B681344D7
:1020C00018461437BD465DF8047B704780B500AFF5
:1020D00001220349034809F0A3FA00BF80BD00BFF5
:1020E000E40400206008002080B582B002AF914B6C
:1020F0001B78002B04D1904B1B780F2B40F04E81A6
:102100008C4B1B785A1CD1B28A4A11701A468A4BE2
:1021100019788A4B9954874B1B78192B40F03E81D4
:10212000844B00221A70854B1B7E002B40F03681B9
:10213000824B5B781AB2814B9B781BB21B021BB29D
:1021400013431BB29BB2C3F30A039AB27C4B1A80AF
:102150007A4B9B78DB08DBB21AB2784BDB781BB288
:102160005B011BB213431BB29BB2C3F30A039AB2C7
:10217000734B5A80714BDB789B09DBB21AB26F4B01
:102180001B791BB29B001BB213431AB26B4B5B79DA
:102190001BB29B021BB213431BB29BB2C3F30A03D5
:1021A0009AB2674B9A80654B5B795B08DBB21AB2D7
:1021B000624B9B791BB2DB011BB213431BB29BB278
:1021C000C3F30A039AB25E4BDA805D4B1B88B3F50A
:1021D0007E7F12D85A4B1B88184640F2DC5300937E
:1021E0004FF47A7340F2F93240F27321FFF752FF55
:1021F00003469AB2534B1A8011E0514B1B88184684
:102200004FF4FA63009340F2DC534FF4AF6240F2B4
:10221000F931FFF73FFF03469AB24A4B1A80494B08
:102220001B88B3F57A7F03D2464B4FF47A721A803B
:10223000444B1B88B3F5FA6F03D9424B4FF4FA6253
:102240001A803F4B5B8840F26542934212D83C4B68
:102250005B88184640F2DC5300934FF47A7340F2E7
:10226000664240F2E121FFF715FF03469AB2364B72
:102270001A8011E0324B5B8818464FF4FA630093E2
:1022800040F2DC534FF4AF6240F26641FFF702FFC9
:1022900003469AB22C4B1A802B4B1B88B3F57A7FDE
:1022A00003D2294B4FF47A721A80274B1B88B3F55F
:1022B000FA6F03D9244B4FF4FA621A80204B9B88A3
:1022C00018464FF4FA6300934FF47A734FF4DD62CB
:1022D000C821FFF7DFFE03469AB21C4B1A801B4B46
:1022E0001B88B3F57A7F03D2184B4FF47A721A80A9
:1022F000164B1B88B3F5FA6F03D9144B4FF4FA62EF
:102300001A800F4BDB88B3F5747F23D20C4BDB882C
:10231000184640F2DC5300934FF47A734FF4747212
:1023200040F25921FFF7B6FE03469AB2084B1A80D5
:1023300022E000BF01050020E4040020E8040020A2
:10234000C40400201C0000201E00002020000020EB
:1023500022000020154BDB8818464FF4FA630093E7
:1023600040F2DC534FF4AC624FF47471FFF792FE0D
:1023700003469AB20E4B1A800D4B1B88B3F57A7F39
:1023800003D20B4B4FF47A721A80094B1B88B3F5BA
:10239000FA6F03D9064B4FF4FA621A8001220549FD
:1023A000054809F03DF900BFBD4680BDC4040020CA
:1023B00022000020E40400206008002080B58AB0DC
:1023C00004AF24233B75642302930123019307F197
:1023D0001403009301230622EC21814803F046F9FF
:1023E000A0233B75642302930123019307F1140397
:1023F000009301230722EC21794803F037F90723E2
:102400003B75642302930123019307F114030093A6
:1024100001230822EC21724803F028F9322002F04F
:10242000CFF864230293122301933B4600930123C8
:102430001022EC216A4803F013FA0346002B40F007
:10244000CB803B781B017A781209D2B21343654ADC
:102450001360644B1B6803F40063002B08D0614BCE
:102460001B686FEA03536FEA13531A465D4B1A60F9
:102470007B781B0203F47063BA7813435A4A1360E3
:10248000594B1B6803F40063002B08D0564B1B68A4
:102490006FEA03536FEA13531A46534B1A60FB78E3
:1024A0001A033B791B0113437A791209D2B2134301
:1024B0004E4A13604D4B1B6803F40023002B08D0D9
:1024C0004A4B1B686FEA03336FEA13331A46474BD4
:1024D0001A607B791B0403F47022BB791B0213433F
:1024E000FA791343424A1360414B1B6803F40023FB
:1024F000002B08D03E4B1B686FEA03336FEA13339F
:102500001A463B4B1A603B7A1B027A7A1343394ACC
:102510001360384B1B6803F40043002B08D0354B85
:102520001B686FEA03436FEA13431A46314B1A6084
:10253000BB7A1B02FA7A13432F4A13602E4B1B6897
:1025400003F40043002B08D02B4B1B686FEA0343B6
:102550006FEA13431A46284B1A603B7B1B027A7BB7
:102560001343264A1360254B1B6803F40043002BDA
:1025700008D0224B1B686FEA03436FEA13431A46E5
:102580001E4B1A60BB7B1B02FA7B13431C4A136071
:102590001B4B1B6803F40043002B08D0184B1B682F
:1025A0006FEA03436FEA13431A46154B1A603B7CEC
:1025B0001B027A7C1343134A1360124B1B6803F40B
:1025C0000043002B08D00F4B1B686FEA03436FEAF0
:1025D00013431A460B4B1A6000BF1837BD4680BD27
:1025E000480300200C0500201005002014050020E1
:1025F000180500201C0500202005002024050020CF
:10260000280500202C05002080B58CB004AF0A23DB
:102610000293062301933B46009301230022EC2101
:10262000614803F01DF90346002B40F0B8803B7869
:102630001A047B781B021343BA781343FB61FB69CE
:1026400003F40003002B03D0FB6943F07F43FB61DD
:10265000FB781A043B791B0213437A791343BB615D
:10266000BB6903F40003002B03D0BB6943F07F4335
:10267000BB61FB6907EE903AB8EEE77ADFED4B6A93
:10268000C7EE267AC7ED057ABB6907EE903AB8EE39
:10269000E77ADFED476AC7EE267AC7ED047A454B45
:1026A0001B6807EE903AB8EEE77A434B1B6807EEDB
:1026B000903AF8EEE76A414B1B6807EE903AB8EEA5
:1026C000E76A3F4B1B6807EE903AF8EEE75AD7ED02
:1026D000057A65EEA77A36EE276AD7ED057A66EEBB
:1026E000277A76EEA76AD7ED057A66EEA77A37EEF7
:1026F000277A344B1B6807EE903AF8EEE76AD7ED7D
:10270000047A66EEA77A37EE277AD7ED046AD7ED1A
:10271000057A66EEA76A2C4B1B6807EE903AB8EE76
:10272000E76A2A4B1B6807EE903AF8EEE75AD7EDB6
:10273000057A65EEA77A76EE277A66EEA77A77EEC7
:10274000277AC7ED037AD7ED037ADFED216A87EEAA
:10275000A67ADFED200AB0EE470A12F0E5FBF0EEB4
:10276000407AB7EE007A77EE677A9FED1B7A67EED4
:10277000877AC7ED027A194B1B78002B05D0184ACF
:10278000BB681360154B00221A70154BD3ED007A0D
:1027900097ED027A77EE677A124BC3ED007A00BFAD
:1027A0002037BD4680BD00BF4803002000007848A8
:1027B0000000004914050020180500202405002011
:1027C0002C0500201C0500202005002028050020E5
:1027D00080E6C547B1DC423E002A2D472400002098
:1027E000080500200405002080B500AF80220349C1
:1027F000034808F0B7FF00BF80BD00BF30050020D0
:10280000A808002080B485B000AF7F4BDB6B1B684D
:102810005B689BB2C3F18003FB81E7E07B4B1B88C5
:102820005A1C91B2794A11801A46794B9B5C7B7392
:10283000764B1B887F2B02D9744B00221A80754B74
:102840001B78092B00F2D28001A252F823F000BFBE
:1028500079280008892800089F280008B528000862
:10286000BD280008CB280008D3280008E12800086C
:10287000EF280008172900087B7B242B40F0B38049
:10288000644B01221A70AEE07B7B582B03D1614B65
:1028900002221A70AAE05F4B00221A70A6E07B7B2E
:1028A0003C2B03D15B4B03221A709FE0594B002253
:1028B0001A709BE0574B04221A7097E0564A7B7BB4
:1028C0001370544B05221A7090E0524B06221A7076
:1028D0008CE0524A7B7B13704E4B07221A7085E0C6
:1028E0004C4B08221A704E4B00221A707EE04C4B63
:1028F0001B785A1CD1B24A4A11701946494A7B7B4F
:102900005354474B1A78454B1B789A426DD3414B31
:1029100009221A7069E0404B1B78012B27D13F4BED
:102920001B78052B23D13F4B1B791A063D4BDB78D7
:102930001B041A433B4B9B781B021343394A5278C2
:102940001343BB60BB68002B48DDBB6842F6DF6207
:10295000934243DCBB6807EE903AB8EEE77ADFEDCE
:10296000326AC7EE267A314BC3ED007A36E02A4B45
:102970001B78022B33D1294B1B78092B2FD1294BE4
:102980001B791A06274BDB781B041A43254B9B78CF
:102990001B021343234A527813437B60214B1B7A5B
:1029A0001A06204BDB791B041A431E4B9B791B0232
:1029B00013431C4A527913433B607B6807EE903AFD
:1029C000F8EEE77A1A4BC3ED007A3B6807EE903ACF
:1029D000F8EEE77A174BC3ED007A00E000BF0D4B2D
:1029E00000221A7002E000BF00E000BF074B1B8806
:1029F000FA899A427FF412AF00BF00BF1437BD4678
:102A00005DF8047B704700BFA8080020B0050020D7
:102A100030050020B2050020B3050020B4050020D9
:102A2000B5050020B805002000007A44D805002034
:102A3000DC050020E005002080B500AF012203493D
:102A4000034808F0EDFD00BF80BD00BFE405002095
:102A5000F008002080B582B000AF224B1B78DBB2BB
:102A60007E2B32D81F4B1B78DBB25A1CD1B21D4AC9
:102A700011701A461C4B1B78D9B21C4B99541A4B37
:102A80001B78DBB20A2B23D1164B1B78DBB21A461C
:102A9000164B002199540023FB7109E0FA79FB7968
:102AA00012498A5CD1B2124AD154FB790133FB71CD
:102AB0000C4B1B78DBB2FA799A42EFD90D4B01220D
:102AC0001A70084B00221A7002E0064B00221A709E
:102AD00001220549084808F0A3FD00BF0837BD469C
:102AE00080BD00BF68060020E4050020E805002046
:102AF0006C060020EC060020F008002080B485B0B1
:102B000000AF87ED010A0346FB70FB78002B0CD069
:102B100097ED017ADFED196AC7EE267AFDEEE77AC6
:102B2000F8EEE77AC7ED037A0BE097ED017ADFED77
:102B3000136AC7EE267AFDEEE77AF8EEE77AC7ED7C
:102B4000037AD7ED037A9FED0D7A67EE877A97EDDA
:102B5000017A77EE677AC7ED027AD7ED027ADFED78
:102B6000086A87EEA67AD7ED037A77EE277AB0EE79
:102B7000670A1437BD465DF8047B70470000C84201
:102B80000000704280B5A8B000AF754B1B78DBB277
:102B9000012B40F0E080002387F89F3016E097F883
:102BA0009F2097F89F306F498A5CD2B2A0333B4494
:102BB00003F8A02C97F89F306A4AD35CDBB2002B55
:102BC00009D097F89F30013387F89F3097F99F30ED
:102BD000002BE4DA00E000BF614B00221A703B4694
:102BE0000622614918460FF0A9FB0346002B09D0C5
:102BF0003B4606225D4918460FF0A0FB0346002B1A
:102C000040F0A9803B465A4918460FF0A9FBC7F887
:102C100098000023C7F894304FF00003C7F89030B5
:102C20004FF00003C7F88C304E2387F88B304523D4
:102C300087F88A3053E0D7F89430022B0CD1D7F8BC
:102C400098000DF05BFF53EC102B10461946FDF772
:102C5000CBFF0346C7F89030D7F89430032B09D147
:102C6000D7F898301B78002B04D0D7F898301B7811
:102C700087F88B30D7F89430042B0CD1D7F8980014
:102C80000DF03CFF53EC102B10461946FDF7ACFF3E
:102C90000346C7F88C30D7F89430052B09D1D7F804
:102CA00098301B78002B04D0D7F898301B7887F821
:102CB0008A30D7F89430072B06D1D7F898000DF05A
:102CC00020FF03462B4A1360294900200FF048FBE0
:102CD000C7F89800D7F894300133C7F89430D7F884
:102CE0009830002BA7D1D7ED247AF5EE407AF1EE9B
:102CF00010FA14D0002097ED240AFFF7FFFE87EDAD
:102D0000210A97F88B30532B04D1D7ED217AF1EEBD
:102D1000677A01E0D7ED217A174BC3ED007AD7ED42
:102D2000237AF5EE407AF1EE10FA14D0012097EDF7
:102D3000230AFFF7E3FE87ED200A97F88A30572B26
:102D400004D1D7ED207AF1EE677A01E0D7ED207A51
:102D50000A4BC3ED007A00BFA037BD4680BD00BF5F
:102D6000EC0600206C0600208C5F0108945F0108CF
:102D70009C5F0108F8060020F0060020F406002001
:102D800080B586B004AF0B23FB716423029301234B
:102D90000193FB1D009301230A221C21044802F029
:102DA00065FC322001F00CFC00BF0837BD4680BD39
:102DB0004803002000000000B0B588B004AF6423D1
:102DC0000293062301933B460093012303221C2117
:102DD000434802F045FD0346002B76D17B781BB2B9
:102DE0001B021AB23B781BB213431AB23D4B1A8036
:102DF000FB781BB21B021AB2BB781BB213431AB288
:102E0000394B1A807B791BB21B021AB23B791BB279
:102E100013431AB2354B1A80324BB3F9003007EE28
:102E2000903AB8EEE77A324BD3ED007A37EE677A14
:102E3000304BD3ED007A67EE277AC7ED037A2A4B41
:102E4000B3F9003007EE903AB8EEE77A2A4BD3EDAB
:102E5000007A37EE677A294BD3ED007A67EE277A4E
:102E6000C7ED027AB868FDF76FFB04460D46F868B7
:102E7000FDF76AFB02460B4643EC112B45EC104B69
:102E800012F01CF851EC100B13A3D3E90023FDF74B
:102E9000B3FB02460B4610461946FDF7A5FE034656
:102EA000174A1360164BD3ED007AF5EEC07AF1EEB7
:102EB00010FA00D409E0124BD3ED007A9FED117A9D
:102EC00077EE877A0E4BC3ED007A00BF1037BD4610
:102ED000B0BD00BFAFF30080000000C0DCA54C40D7
:102EE00048030020FC060020FE060020000700200A
:102EF00008070020280000200C0700202C000020DC
:102F0000040700200000B44380B584B000AF03463E
:102F10003960FB711346BB80FB7903F07F03DBB2A2
:102F2000FB73002204210C4802F02CFA07F10F0178
:102F300064230122094806F0E4FEBA886423396854
:102F4000064806F0DEFE01220421034802F01AFAC8
:102F500000BF1037BD4680BD000C02407407002042
:102F600080B584B000AF03463960FB711346BB8067
:102F7000FB7963F07F03DBB2FB730023BB7300229A
:102F80000421104802F0FEF907F10F016423012229
:102F90000D4806F0B6FE07F10E01642301220A482F
:102FA00006F0F3FFBA8864233968074806F0EDFF9E
:102FB00001220421034802F0E5F900BF1037BD46A5
:102FC00080BD00BF000C02407407002080B58CB0AB
:102FD00000AF00233B83642001F0F2FA01220421B8
:102FE000714802F0CFF90A2001F0EAFA0023FB62EF
:102FF00013E007F11803022219460020FFF7B0FF83
:103000003A7E6A4B1A70694B1B78432B09D03220E9
:1030100001F0D6FAFB6A0133FB62FB6A042BE8DDA0
:1030200000E000BF614B1B78432B40F0B8800A20C2
:1030300001F0C6FA47F20803BB8207F1140302222B
:1030400019462020FFF760FF47F208033B8207F193
:103050001003022219462120FFF756FF4FF47A7021
:1030600001F0AEFA4FF4FA733B62514B4FF000029D
:103070001A604F4B4FF000025A604D4B4FF0000268
:103080009A600023BB6259E03B1D0C2219460320C5
:10309000FFF766FFFB7A1BB21B021AB2BB7A1BB2A8
:1030A0001343FB837B7B1BB21B021AB23B7B1BB21D
:1030B0001343BB83FB7B1BB21B021AB2BB7B1BB24D
:1030C00013437B833A4B93ED007AB7F91E3007EE3A
:1030D000903AF8EEE76A9FED376AC6EE867A77EEA9
:1030E000277A334BC3ED007A314B93ED017AB7F970
:1030F0001C3007EE903AF8EEE76A9FED2E6AC6EEB6
:10310000867A77EE277A2A4BC3ED017A284B93ED26
:10311000027AB7F91A3007EE903AF8EEE76A9FEDB7
:10312000256AC6EE867A77EE277A214BC3ED027ABE
:10313000022001F045FABB6A0133BB62BA6A3B6AFE
:103140009A42A1DB00237B6215E0194A7B6A9B004F
:103150001344D3ED006A3B6A07EE903AB8EEE77A83
:10316000C6EE877A124A7B6A9B001344C3ED007A4D
:103170007B6A01337B627B6A022BE6DD0E4B0F4AD2
:103180001A600D4B0E4A5A600B4B0E4A9A6001F0C2
:103190000BFA03460C4A13600C4B01221A7000BF55
:1031A0003037BD4680BD00BF000C02401007002034
:1031B000200700203333834314070020D5F8E9BBF0
:1031C00096A3493C005943BC7007002034000020FE
:1031D000B0B596B000AFAC4B1B78432B40F0878264
:1031E0003B1D0C2219460320FFF7BAFE7B791BB268
:1031F0001B021AB23B791BB21343A7F85230FB797A
:103200001BB21B021AB2BB791BB21343A7F8503092
:103210007B7A1BB21B021AB23B7A1BB21343A7F88C
:103220004E30FB7A1BB21B021AB2BB7A1BB213439D
:10323000A7F84C307B7B1BB21B021AB23B7B1BB244
:103240001343A7F84A30FB7B1BB21B021AB2BB7BAD
:103250001BB21343A7F84830B7F9523007EE903A43
:10326000F8EEE77ADFED896A87EEA67A884BD3ED30
:10327000007A77EE677AC7ED117AB7F9503007EE2A
:10328000903AF8EEE77ADFED816A87EEA67A804B16
:10329000D3ED017A77EE677AC7ED107AB7F94E3041
:1032A00007EE903AF8EEE77ADFED786A87EEA67AD5
:1032B000774BD3ED027A77EE677AC7ED0F7AB7F9DD
:1032C0004C3007EE903AF8EEE77ADFED726A87EE5F
:1032D000A67A714BD3ED007A77EE677AC7ED0E7A56
:1032E000B7F94A3007EE903AF8EEE77ADFED696A0F
:1032F00087EEA67A684BD3ED017A77EE677AC7ED51
:103300000D7AB7F9483007EE903AF8EEE77ADFED3C
:10331000616A87EEA67A604BD3ED027A77EE677A20
:10332000C7ED0C7A5D4A7B6C13605D4A3B6C1360A1
:103330005C4AFB6B13605C4ABB6B13605B4A7B6B44
:1033400013605B4A3B6B13605A4BFB62594BBB6289
:10335000594BD3ED007A97ED117A37EE677AD7EDB6
:103360000B7A27EE277A544BD3ED007A77EE277A43
:10337000514BC3ED007A514BD3ED007A97ED107AA3
:1033800037EE677AD7ED0B7A27EE277A4B4BD3EDE2
:10339000007A77EE277A494BC3ED007A484BD3ED9C
:1033A000007A97ED0F7A37EE677AD7ED0B7A27EE32
:1033B000277A434BD3ED007A77EE277A404BC3ED63
:1033C000007A404BD3ED007A97ED0E7A37EE677AAC
:1033D000D7ED0A7A27EE277A3A4BD3ED007A77EECB
:1033E000277A384BC3ED007A374BD3ED007A97ED4F
:1033F0000D7A37EE677AD7ED0A7A27EE277A324BC5
:10340000D3ED007A77EE277A2F4BC3ED007A2F4B5E
:10341000D3ED007A97ED0C7A37EE677AD7ED0A7A1A
:1034200027EE277A294BD3ED007A77EE277A274BC0
:10343000C3ED007A234B1B68254A1360224B1B689F
:10344000244A1360214BD3ED007AF1EE677A224BC8
:10345000C3ED007A01F0A8F87862204B1B687A6A05
:10346000D31A07EE903AB8EE677ADFED1D6AC7EE21
:10347000267AC7ED157A194B1B687A6A9A4231D9B8
:10348000164A7B6A13602FE0100700200000804678
:10349000140700203333834320070020380700201F
:1034A0003C07002040070020440700204807002078
:1034B0004C0700209A99193E5C0700206007002005
:1034C0003000002064070020680700206C070020FF
:1034D00050070020540700205807002070070020E4
:1034E00000007A44864B7B65D7ED157A9FED857A8F
:1034F000F4EEC77AF1EE10FA01DD814B7B65824B69
:10350000D3ED007AF1EE677A17EE903A1846FDF7A0
:103510001BF804460D467D4B1B681846FDF714F852
:1035200002460B4643EC112B45EC104B11F0C6FC48
:1035300051EC100B70A3D3E90023FDF75DF80246B0
:103540000B4610461946FDF74FFB03463B62704B96
:103550001B681846FCF7F8FF04460D466A4B93EDCE
:10356000007A694BD3ED007A27EE277A674BD3EDCB
:10357000006A664BD3ED007A66EEA77A77EE277A7B
:1035800017EE900AFCF7E0FF02460B4643EC102BC7
:1035900011F096FCB0EE407AF0EE607AB0EE471A89
:1035A000F0EE671A45EC104B11F088FC51EC100B53
:1035B00051A3D3E90023FDF71FF802460B4610463E
:1035C0001946FDF711FB0346FB61524B1B68BB61BB
:1035D000514B1B687B61514B1B683B61504B1B7807
:1035E000002B0DD04F4A3B6A13604F4AFB691360B2
:1035F0004E4B4FF000021A60494B00221A7033E024
:1036000097ED067AD7ED157A27EE277A454BD3ED5D
:10361000007A77EE277A9FED467A27EE877AD7ED04
:10362000087ADFED446A67EEA67A77EE277A3D4B9B
:10363000C3ED007A97ED057AD7ED157A27EE277A54
:10364000394BD3ED007A77EE277A9FED397A27EE62
:10365000877AD7ED077ADFED376A67EEA67A77EEDD
:10366000277A314BC3ED007AD7ED047AF0EEE77A92
:10367000B6EE007AF4EEC77AF1EE10FA0DDD97EDB2
:10368000047AD7ED157A27EE277A284BD3ED007A06
:1036900077EE277A254BC3ED007A244BD3ED007AE1
:1036A0009FED257AF4EEC77AF1EE10FA0ADD1F4B92
:1036B000D3ED007A9FED217A77EEC77A1B4BC3EDED
:1036C000007A15E0194BD3ED007A9FED1D7AF4EEE8
:1036D000C77AF1EE10FA0BD5144BD3ED007A9FEDBB
:1036E000177A77EE877A114BC3ED007A00E000BFBE
:1036F0005837BD46B0BD00BF000000C0DCA54C403F
:103700006F12033BCDCCCC3D5C0700203000002085
:1037100060070020540700205007002058070020B1
:10372000340000202C070020300700203407002040
:1037300048E17A3F0AD7A33C000034430000B44379
:10374000000034C380B500AF174B184A1A60164BFF
:103750004FF482725A60144B00229A60124B00227E
:10376000DA60114B00221A610F4B00225A610E4B96
:103770004FF400729A610C4B1822DA610A4B002256
:103780001A62094B00225A62074B00229A62064BCA
:103790000A22DA62044806F02BFA0346002B01D015
:1037A000FEF772FC00BF80BD7407002000300140AE
:1037B00080B58AB000AF786007F1140300221A6068
:1037C0005A609A60DA601A617B681B68194A9342F2
:1037D0002BD100233B61184B5B6C174A43F4805399
:1037E0005364154B5B6C03F480533B613B690023CE
:1037F000FB60114B1B6B104A43F0020313630E4B2B
:103800001B6B03F00203FB60FB6838237B61022320
:10381000BB610023FB6103233B6205237B6207F14D
:1038200014031946054801F011FC00BF2837BD46B6
:1038300080BD00BF0030014000380240000402405B
:1038400080B483B000AF00237B60104B5B6C0F4AE9
:1038500043F4804353640D4B5B6C03F480437B6003
:103860007B6800233B60094B1B6C084A43F0805384
:103870001364064B1B6C03F080533B603B6800BF36
:103880000C37BD465DF8047B704700BF003802402E
:1038900080B400AF00BFFDE780B400AF00BFFDE71C
:1038A00080B400AF00BFFDE780B400AF00BFFDE70C
:1038B00080B400AF00BFFDE780B400AF00BFBD46DD
:1038C0005DF8047B704780B400AF00BFBD465DF873
:1038D000047B704780B400AF00BFBD465DF8047B39
:1038E000704780B500AF00F04BFE00BF80BD000008
:1038F00080B500AF024801F031F900BF80BD00BFC4
:103900009C03002080B500AF024801F027F900BFFA
:1039100080BD00BFA00A002080B500AF024801F0C2
:103920001DF900BF80BD00BF000B002080B500AFB7
:10393000024801F013F900BF80BD00BF400A00201B
:1039400080B500AF024801F009F900BF80BD00BF9B
:10395000E009002080B500AF024802F0B3F900BFD3
:1039600080BD00BF4803002080B500AF024802F0D0
:103970001AFB00BF80BD00BF4803002080B500AF28
:10398000024807F015FF00BF80BD00BF600800209F
:1039900080B500AF024807F00BFF00BF80BD00BF3D
:1039A000A808002080B500AF024807F001FF00BF63
:1039B00080BD00BFF008002080B500AF024801F0D4
:1039C000CDF800BF80BD00BFFC03002080B500AF74
:1039D000024801F0C3F800BF80BD00BF800900208D
:1039E00080B500AF024804F05CFB00BF80BD00BFA3
:1039F000A420002080B500AF024801F0AFF800BF5E
:103A000080BD00BF600B002080B500AF024807F00A
:103A1000CFFE00BF80BD00BF3809002080B400AFDA
:103A200001231846BD465DF8047B704780B582B01F
:103A300000AF786039600EF043FD034616221A602D
:103A40004FF0FF3318460837BD4680BD80B582B0C1
:103A500000AF78604FF0FF317868FFF7E7FF00BFF5
:103A6000FDE780B586B000AFF860B9607A600023EA
:103A70007B610AE0AFF300800146BB685A1CBA6064
:103A8000CAB21A707B6901337B617A697B689A429A
:103A9000F0DB7B6818461837BD4680BD80B586B020
:103AA00000AFF860B9607A6000237B6109E0BB6811
:103AB0005A1CBA601B781846AFF300807B6901334B
:103AC0007B617A697B689A42F1DB7B68184618371C
:103AD000BD4680BD80B483B000AF78604FF0FF3347
:103AE00018460C37BD465DF8047B704780B483B040
:103AF00000AF786039603B684FF400525A60002391
:103B000018460C37BD465DF8047B704780B483B01F
:103B100000AF7860012318460C37BD465DF8047B82
:103B2000704780B485B000AFF860B9607A60002358
:103B300018461437BD465DF8047B704780B586B0E3
:103B400000AF7860144A154BD31A7B617B693B61E7
:103B5000134B1B68002B02D1114B124A1A60104BF9
:103B60001A687B6813443A699A4207D20EF0A8FC9F
:103B700003460C221A604FF0FF3309E0084B1B6824
:103B8000FB60074B1A687B681344054A1360FB68A7
:103B900018461837BD4680BD000002200004000012
:103BA000CC070020F828002080B400AF064BD3F8E3
:103BB0008830054A43F47003C2F8883000BFBD4620
:103BC0005DF8047B704700BF00ED00E080B586B073
:103BD00000AF07F1080300221A605A609A60DA60A9
:103BE0003B4600221A605A601D4B4FF080421A601B
:103BF0001B4B53225A601A4B00229A60184B4FF00D
:103C0000FF32DA60164B00221A61154B00229A61CE
:103C1000134806F0BFFD0346002B01D0FEF734FA2F
:103C20004FF48053BB6007F1080319460C4807F0B6
:103C30004DF80346002B01D0FEF726FA00233B6027
:103C400000237B603B461946054807F01DFC0346F0
:103C5000002B01D0FEF718FA00BF1837BD4680BD13
:103C6000D007002080B58EB000AF07F128030022F6
:103C70001A605A609A60DA6007F1200300221A6025
:103C80005A603B1D00221A605A609A60DA601A611D
:103C90005A619A613D4B3E4A1A603C4B53225A602E
:103CA0003A4B00229A60394B44F61F62DA60374B78
:103CB00000221A61354B80229A61344806F06AFD71
:103CC0000346002B01D0FEF7DFF94FF48053BB62AF
:103CD00007F1280319462D4806F0F8FF0346002B8C
:103CE00001D0FEF7D1F9294806F00CFE0346002B5F
:103CF00001D0FEF7C9F900233B6200237B6207F184
:103D000020031946214807F0BFFB0346002B01D0D2
:103D1000FEF7BAF960237B600023BB600023FB60E1
:103D200000237B613B1D00221946184806F00CFF5A
:103D30000346002B01D0FEF7A7F93B1D04221946CC
:103D4000124806F001FF0346002B01D0FEF79CF954
:103D50003B1D082219460D4806F0F6FE0346002BCF
:103D600001D0FEF791F93B1D0C221946074806F0D9
:103D7000EBFE0346002B01D0FEF786F9034800F066
:103D80003FF800BF3837BD4680BD00BF180800208F
:103D90000004004080B485B000AF78607B681B6889
:103DA000B3F1804F0ED10023FB60134B1B6C124A02
:103DB00043F001031364104B1B6C03F00103FB6021
:103DC000FB6812E07B681B680C4A93420DD100230C
:103DD000BB60094B1B6C084A43F002031364064B9B
:103DE0001B6C03F00203BB60BB6800BF1437BD4609
:103DF0005DF8047B704700BF0038024000040040BB
:103E000080B58AB000AF786007F1140300221A6011
:103E10005A609A60DA601A617B681B68214A934293
:103E20003BD100233B61204B1B6B1F4A43F0010336
:103E300013631D4B1B6B03F001033B613B690023C4
:103E4000FB60194B1B6B184A43F002031363164BBC
:103E50001B6B03F00203FB60FB68C0237B61022342
:103E6000BB610023FB6100233B6202237B6207F1FD
:103E7000140319460D4801F0E9F803237B6102237E
:103E8000BB610023FB6100233B6202237B6207F1DD
:103E900014031946064801F0D9F800BF2837BD467B
:103EA00080BD00BF00040040003802400000024016
:103EB0000004024080B500AF124B134A1A60114B48
:103EC000124A5A600F4B4FF480529A600D4B4FF4D8
:103ED0000052DA600B4B4FF480621A61094B0C22DE
:103EE0005A61084B00229A61064B0022DA610548AC
:103EF00007F046FB0346002B01D0FEF7C5F800BFD4
:103F000080BD00BF6008002000100140A0860100B5
:103F100080B500AF114B124A1A60104B4FF4E132DA
:103F20005A600E4B00229A600C4B0022DA600B4B59
:103F300000221A61094B0C225A61084B00229A6137
:103F4000064B0022DA61054807F01AFB0346002BF6
:103F500001D0FEF799F800BF80BD00BFA80800207F
:103F60000044004080B500AF114B124A1A60104B5C
:103F70004FF4E1325A600E4B00229A600C4B002243
:103F8000DA600B4B00221A61094B0C225A61084B74
:103F900000229A61064B0022DA61054807F0F0FA28
:103FA0000346002B01D0FEF76FF800BF80BD00BFB5
:103FB000F00800200048004080B500AF114B124AC5
:103FC0001A60104B4FF416525A600E4B00229A6042
:103FD0000C4B0022DA600B4B00221A61094B0C22B9
:103FE0005A61084B00229A61064B0022DA610548AB
:103FF00007F0C6FA0346002B01D0FEF745F800BFD4
:1040000080BD00BF380900200014014080B590B089
:1040100000AF786007F12C0300221A605A609A60A2
:10402000DA601A617B681B68804A934265D100237D
:10403000BB627F4B5B6C7E4A43F0100353647C4B46
:104040005B6C03F01003BB62BB6A00237B62784B9E
:104050001B6B774A43F001031363754B1B6B03F033
:1040600001037B627B6A4FF4C063FB6202233B6304
:1040700000237B630323BB630723FB6307F12C034C
:1040800019466C4800F0E2FF6B4B6C4A1A606A4BB1
:104090004FF000625A60684B00229A60664B002223
:1040A000DA60654B4FF480621A61634B00225A61FB
:1040B000614B00229A61604B4FF48072DA615E4B73
:1040C0004FF440321A625C4B00225A625A4800F0A8
:1040D000ADFB0346002B01D0FDF7D6FF7B68564AA7
:1040E000DA63554A7B68936300220021252000F0A3
:1040F00066FB252000F07FFBAEE17B681B68504A21
:10410000934240F0A78000233B62494B1B6C484A16
:1041100043F400331364464B1B6C03F400333B62DF
:104120003B6A0023FB61424B1B6B414A43F0010396
:1041300013633F4B1B6B03F00103FB61FB690C2313
:10414000FB6202233B6300237B630323BB630723E0
:10415000FB6307F12C031946364800F077FF394B13
:10416000394A1A60374B4FF000625A60354B402293
:104170009A60344B0022DA60324B4FF480621A614D
:10418000304B00225A612F4B00229A612D4B0022A6
:10419000DA612C4B00221A622A4B00225A6229480B
:1041A00000F044FB0346002B01D0FDF76DFF7B6858
:1041B000244A9A63234A7B689363244B244A1A60F7
:1041C000224B4FF000625A60204B00229A601F4B36
:1041D0000022DA601D4B4FF480621A611B4B0022F3
:1041E0005A611A4B00229A61184B4FF48072DA61BF
:1041F000164B4FF400321A62144B00225A621348D5
:1042000000F014FB0346002B01D0FDF73DFF7B6857
:104210000E4ADA630D4A7B68936300220021262050
:1042200000F0CDFA262000F0E6FA15E1001001407A
:104230000038024000000240800900204064024033
:1042400000440040E0090020A0600240400A002035
:10425000886002407B681B68814A934240F09480EA
:104260000023BB617F4B1B6C7E4A43F480231364A5
:104270007C4B1B6C03F48023BB61BB6900237B6117
:10428000784B1B6B774A43F004031363754B1B6B2E
:1042900003F004037B617B694FF44063FB620223FC
:1042A0003B6300237B630323BB630723FB6307F1AB
:1042B0002C0319466C4800F0C9FE6C4B6C4A1A601E
:1042C0006A4B4FF000625A60684B00229A60674B5D
:1042D0000022DA60654B4FF480621A61634B002262
:1042E0005A61624B00229A61604B4FF48072DA612E
:1042F0005E4B4FF400321A625C4B00225A625B48FC
:1043000000F094FA0346002B01D0FDF7BDFE7B6858
:10431000564ADA63554A7B689363564B564A1A608D
:10432000544B4FF000625A60524B40229A60514BFE
:104330000022DA604F4B4FF480621A614D4B00222D
:104340005A614C4B00229A614A4B0022DA61494B78
:1043500000221A62474B00225A62464800F066FA71
:104360000346002B01D0FDF78FFE7B68414A9A631C
:10437000404A7B68936300220021272000F01FFA47
:10438000272000F038FA67E07B681B683B4A9342BD
:1043900062D100233B61334B5B6C324A43F0200314
:1043A0005364304B5B6C03F020033B613B6900239B
:1043B000FB602C4B1B6B2B4A43F004031363294B0C
:1043C0001B6B03F00403FB60FB68C023FB6202234A
:1043D0003B6300237B630323BB630823FB6307F179
:1043E0002C031946204800F031FE254B254A1A605F
:1043F000234B4FF020625A60214B40229A60204BA1
:104400000022DA601E4B4FF480621A611C4B0022BE
:104410005A611B4B00229A61194B0022DA61184B3A
:104420004FF480321A62164B00225A62144800F090
:10443000FDF90346002B01D0FDF726FE7B68104AEC
:104440009A630F4A7B68936300220021472000F0A3
:10445000B6F9472000F0CFF900BF4037BD4680BD18
:10446000004800400038024000080240A00A002036
:1044700028600240000B00205860024000140140F8
:10448000600B0020A0640240DFF834D0FFF78CFB03
:104490000C480D490D4A002302E0D458C45004339F
:1044A000C4188C42F9D30A4A0A4C002301E0136075
:1044B0000432A242FBD30EF009F8FDF7B3FC7047BB
:1044C0000000022000000020FC020020106601080D
:1044D000FC020020F4280020FEE7000080B500AFB9
:1044E0000E4B1B680D4A43F4007313600B4B1B68A3
:1044F0000A4A43F480631360084B1B68074A43F47D
:1045000080731360032000F04FF90F2000F008F8CB
:10451000FFF796F90023184680BD00BF003C02401B
:1045200080B582B000AF7860124B1A68124B1B78CE
:1045300019464FF47A73B3FBF1F3B2FBF3F3184669
:1045400000F067F90346002B01D001230EE07B68E1
:104550000F2B0AD8002279684FF0FF3000F02FF9B6
:10456000064A7B681360002300E0012318460837E1
:10457000BD4680BD38000020400000203C000020E7
:1045800080B400AF064B1B781A46064B1B681344D9
:10459000044A136000BFBD465DF8047B704700BF4E
:1045A00040000020C00B002080B400AF034B1B680C
:1045B0001846BD465DF8047B704700BFC00B002065
:1045C00080B584B000AF7860FFF7EEFFB8607B681D
:1045D000FB60FB68B3F1FF3F05D00A4B1B781A461E
:1045E000FB681344FB6000BFFFF7DEFF0246BB68B9
:1045F000D31AFA689A42F7D800BF00BF1037BD46F9
:1046000080BD00BF4000002080B485B000AF78605E
:104610007B6803F00703FB600C4BDB68BB60BA6888
:104620004FF6FF031340BB60FB681A02BB681343DD
:1046300043F0BF6343F40033BB60044ABB68D360FC
:1046400000BF1437BD465DF8047B704700ED00E005
:1046500080B400AF044BDB681B0A03F00703184665
:10466000BD465DF8047B704700ED00E080B483B088
:1046700000AF0346FB7197F90730002B0BDBFB798A
:1046800003F01F02074997F907305B09012000FA80
:1046900002F241F8232000BF0C37BD465DF8047BD1
:1046A000704700BF00E100E080B483B000AF034674
:1046B0003960FB7197F90730002B0ADB3B68DAB2EF
:1046C0000C4997F907301201D2B20B4483F800234A
:1046D0000AE03B68DAB20849FB7903F00F03043BB8
:1046E0001201D2B20B441A7600BF0C37BD465DF8FA
:1046F000047B704700E100E000ED00E080B489B089
:1047000000AFF860B9607A60FB6803F00703FB61F3
:10471000FB69C3F10703042B28BF0423BB61FB69BA
:104720000433062B02D9FB69033B00E000237B61C5
:104730004FF0FF32BB6902FA03F3DA43BB681A4059
:104740007B699A404FF0FF317B6901FA03F3D9434B
:104750007B680B40134318462437BD465DF8047B45
:104760007047000080B582B000AF78607B68013B85
:10477000B3F1807F01D301230FE00A4A7B68013B3C
:1047800053600F214FF0FF30FFF78EFF054B0022E3
:104790009A60044B07221A60002318460837BD466A
:1047A00080BD00BF10E000E080B582B000AF78604F
:1047B0007868FFF729FF00BF0837BD4680BD80B588
:1047C00086B000AF0346B9607A60FB7300237B615B
:1047D000FFF73EFF78617A68B9687869FFF78EFF66
:1047E000024697F90F3011461846FFF75DFF00BFEC
:1047F0001837BD4680BD80B582B000AF0346FB715F
:1048000097F907301846FFF731FF00BF0837BD465C
:1048100080BD80B582B000AF78607868FFF7A2FFF6
:10482000034618460837BD4680BD000080B586B0F7
:1048300000AF786000237B61FFF7B6FE38617B68CC
:10484000002B01D1012399E07B68022283F83520F7
:104850007B68002283F834207B681B681A687B68B9
:104860001B6822F001021A600FE0FFF79DFE02466E
:104870003B69D31A052B08D97B6820225A657B68CF
:10488000032283F83520032378E07B681B681B68CC
:1048900003F00103002BE8D17B681B681B687B6178
:1048A0007A69384B13407B617B685A687B689B68E8
:1048B0001A437B68DB681A437B681B691A437B6871
:1048C0005B691A437B689B691A437B68DB691A43FF
:1048D0007B681B6A13437A6913437B617B685B6A5D
:1048E000042B07D17B68DA6A7B681B6B13437A69F8
:1048F00013437B617B681B687A691A607B681B685D
:104900005B697B617B6923F007037B617B685B6A82
:104910007A6913437B617B685B6A042B17D17B68E0
:104920009B6A7A6913437B617B68DB6A002B0ED03C
:10493000786800F00FFB0346002B08D07B6840220C
:104940005A657B68012283F83520012316E07B68D5
:104950001B687A695A61786800F0C6FA0346FB6002
:104960007B68DB6D3F229A40FB689A607B6800227F
:104970005A657B68012283F83520002318461837D2
:10498000BD4680BD3F8010F080B586B000AFF860B6
:10499000B9607A603B600023FB75FB689B6D3B61EF
:1049A000FB6893F83430012B01D1022340E0FB680F
:1049B000012283F83420FB6893F83530DBB2012BF9
:1049C0002FD1FB68022283F83520FB6800225A654C
:1049D0003B687A68B968F86800F058FAFB68DB6DE4
:1049E0003F229A403B699A60FB681B681A68FB6823
:1049F0001B6842F016021A60FB681B6C002B07D084
:104A0000FB681B681A68FB681B6842F008021A60A2
:104A1000FB681B681A68FB681B6842F001021A6099
:104A200005E0FB68002283F834200223FB75FB7D40
:104A300018461837BD4680BD80B584B000AF786099
:104A40007B689B6DFB60FFF7AFFDB8607B6893F8F8
:104A50003530DBB2022B08D07B6880225A657B6838
:104A6000002283F83420012352E07B681B681A6817
:104A70007B681B6822F016021A607B681B685A6903
:104A80007B681B6822F080025A617B681B6C002BDC
:104A900003D17B689B6C002B07D07B681B681A686E
:104AA0007B681B6822F008021A607B681B681A6822
:104AB0007B681B6822F001021A6013E0FFF774FDA7
:104AC0000246BB68D31A052B0CD97B6820225A6595
:104AD0007B68032283F835207B68002283F834202A
:104AE000032315E07B681B681B6803F00103002BA0
:104AF000E4D17B68DB6D3F229A40FB689A607B685B
:104B0000012283F835207B68002283F834200023BB
:104B100018461037BD4680BD80B483B000AF7860C2
:104B20007B6893F83530DBB2022B04D07B6880229F
:104B30005A6501230CE07B68052283F835207B68E9
:104B40001B681A687B681B6822F001021A60002348
:104B500018460C37BD465DF8047B704780B586B0BB
:104B600000AF78600023BB608E4B1B688E4AA2FBAF
:104B700003239B0A7B617B689B6D3B613B691B68E0
:104B8000FB607B68DB6D08229A40FB681340002BBA
:104B90001AD07B681B681B6803F00403002B13D03A
:104BA0007B681B681A687B681B6822F004021A6025
:104BB0007B68DB6D08229A403B699A607B685B6D7D
:104BC00043F001027B685A657B68DB6D01229A40E5
:104BD000FB681340002B12D07B681B685B6903F0F5
:104BE0008003002B0BD07B68DB6D01229A403B6970
:104BF0009A607B685B6D43F002027B685A657B6854
:104C0000DB6D04229A40FB681340002B12D07B68B6
:104C10001B681B6803F00203002B0BD07B68DB6D65
:104C200004229A403B699A607B685B6D43F0040202
:104C30007B685A657B68DB6D10229A40FB681340E5
:104C4000002B43D07B681B681B6803F00803002B14
:104C50003CD07B68DB6D10229A403B699A607B6890
:104C60001B681B6803F48023002B18D07B681B682B
:104C70001B6803F40023002B08D17B681B6C002BFE
:104C800024D07B681B6C786898471FE07B689B6C1E
:104C9000002B1BD07B689B6C7868984716E07B687C
:104CA0001B681B6803F48073002B07D17B681B68AB
:104CB0001A687B681B6822F008021A607B681B6C0C
:104CC000002B03D07B681B6C786898477B68DB6D92
:104CD00020229A40FB681340002B00F08F807B68F5
:104CE0001B681B6803F01003002B00F087807B68B3
:104CF000DB6D20229A403B699A607B6893F83530DF
:104D0000DBB2052B36D17B681B681A687B681B6891
:104D100022F016021A607B681B685A697B681B6860
:104D200022F080025A617B681B6C002B03D17B68E8
:104D30009B6C002B07D07B681B681A687B681B681C
:104D400022F008021A607B68DB6D3F229A403B69C3
:104D50009A607B68012283F835207B68002283F803
:104D600034207B681B6D002B7ED07B681B6D7868C0
:104D7000984779E07B681B681B6803F48023002B4D
:104D80001DD07B681B681B6803F40023002B0DD12A
:104D90007B685B6C002B31D07B685B6C78689847D4
:104DA0002CE000BF38000020B5814E1B7B68DB6B18
:104DB000002B23D07B68DB6B786898471EE07B680C
:104DC0001B681B6803F48073002B0FD17B681B6882
:104DD0001A687B681B6822F010021A607B68012247
:104DE00083F835207B68002283F834207B68DB6BF6
:104DF000002B03D07B68DB6B786898477B685B6D22
:104E0000002B32D07B685B6D03F00103002B22D0B6
:104E10007B68052283F835207B681B681A687B68ED
:104E20001B6822F001021A60BB680133BB607A691B
:104E30009A4207D37B681B681B6803F00103002BB1
:104E4000F2D100E000BF7B68012283F835207B6847
:104E5000002283F834207B68DB6C002B05D07B6854
:104E6000DB6C7868984700E000BF1837BD4680BD0E
:104E700080B483B000AF78607B6893F83530DBB2E4
:104E800018460C37BD465DF8047B704780B485B08A
:104E900000AFF860B9607A603B60FB681B681A6815
:104EA000FB681B6822F480221A60FB681B683A6862
:104EB0005A60FB689B68402B08D1FB681B687A68C6
:104EC0009A60FB681B68BA68DA6007E0FB681B68D9
:104ED000BA689A60FB681B687A68DA6000BF1437AA
:104EE000BD465DF8047B704780B485B000AF786044
:104EF0007B681B68DBB2103B144AA2FB03231B092F
:104F0000FB60134AFB6813441B781A467B68DA651A
:104F1000FB68032B09D97B681B6823F47F7323F09C
:104F200003031A1D7B689A6507E07B681B6823F4FE
:104F30007F7323F003037A6893657B689B6D184643
:104F40001437BD465DF8047B704700BFABAAAAAA20
:104F5000FC60010880B485B000AF78600023FB736B
:104F60007B689B6ABB607B689B69002B1FD1BB6819
:104F7000032B56D801A252F823F000BF8D4F000832
:104F80009F4F00088D4F0008235000087B68DB6AA4
:104F900003F08073002B46D00123FB7343E07B6852
:104FA000DB6AB3F1C07F40D10123FB733DE07B6836
:104FB0009B69B3F5005F21D1BB68032B37D801A2F1
:104FC00052F823F0D54F0008DB4F0008D54F0008FA
:104FD000ED4F00080123FB7330E07B68DB6A03F0D0
:104FE0008073002B25D00123FB7322E07B68DB6AF2
:104FF000B3F1C07F1FD10123FB731CE0BB68022B00
:1050000003D9BB68032B03D018E00123FB7315E021
:105010007B68DB6A03F08073002B0ED00123FB73E7
:105020000BE000BF0AE000BF08E000BF06E000BFE1
:1050300004E000BF02E000BF00E000BFFB7B1846B9
:105040001437BD465DF8047B704700BF80B489B05B
:1050500000AF7860396000237B6100233B6100234F
:10506000BB610023FB616BE10122FB6902FA03F3E0
:105070007B613B681B687A6913403B613A697B69D5
:105080009A4240F05A813B685B6803F00303012BAE
:1050900005D03B685B6803F00303022B30D17B68CB
:1050A0009B68BB61FB695B00032202FA03F3DB43ED
:1050B000BA691340BB613B68DA68FB695B0002FABE
:1050C00003F3BA691343BB617B68BA699A607B6872
:1050D0005B68BB610122FB6902FA03F3DB43BA6937
:1050E0001340BB613B685B681B0903F00102FB696D
:1050F00002FA03F3BA691343BB617B68BA695A6069
:105100003B685B6803F00303032B17D07B68DB6805
:10511000BB61FB695B00032202FA03F3DB43BA695C
:105120001340BB613B689A68FB695B0002FA03F3BA
:10513000BA691343BB617B68BA69DA603B685B6834
:1051400003F00303022B23D1FB69DA087B680832E2
:1051500053F82230BB61FB6903F007039B000F2269
:1051600002FA03F3DB43BA691340BB613B681A6977
:10517000FB6903F007039B0002FA03F3BA691343C8
:10518000BB61FB69DA087B680832B96943F8221011
:105190007B681B68BB61FB695B00032202FA03F3B7
:1051A000DB43BA691340BB613B685B6803F00302F1
:1051B000FB695B0002FA03F3BA691343BB617B68C6
:1051C000BA691A603B685B6803F44033002B00F057
:1051D000B4800023FB60604B5B6C5F4A43F4804308
:1051E00053645D4B5B6C03F48043FB60FB685B4A7C
:1051F000FB699B08023352F82330BB61FB6903F063
:1052000003039B000F2202FA03F3DB43BA69134046
:10521000BB617B68524A93422BD07B68514A9342D0
:1052200025D07B68504A93421FD07B684F4A9342F7
:1052300019D07B684E4A934213D07B684D4A934203
:105240000DD07B684C4A934207D07B684B4A93420F
:1052500001D107230EE008230CE006230AE0052312
:1052600008E0042306E0032304E0022302E0012314
:1052700000E00023FA6902F0030292009340BA6949
:105280001343BB613549FB699B080233BA6941F896
:1052900023203B4B9B68BB613B69DB43BA691340EE
:1052A000BB613B685B6803F48013002B03D0BA69D1
:1052B0003B691343BB61324ABB699360304BDB6887
:1052C000BB613B69DB43BA691340BB613B685B6808
:1052D00003F40013002B03D0BA693B691343BB618D
:1052E000274ABB69D360264B5B68BB613B69DB43E4
:1052F000BA691340BB613B685B6803F40033002B61
:1053000003D0BA693B691343BB611D4ABB69536053
:105310001B4B1B68BB613B69DB43BA691340BB6134
:105320003B685B6803F48033002B03D0BA693B69A8
:105330001343BB61124ABB691360FB690133FB6114
:10534000FB690F2B7FF690AE00BF00BF2437BD4630
:105350005DF8047B704700BF003802400038014010
:10536000000002400004024000080240000C02401D
:10537000001002400014024000180240001C0240CD
:10538000003C014080B483B000AF78600B467B8066
:1053900013467B707B78002B03D07A887B689A61F8
:1053A00003E07B881A047B689A6100BF0C37BD4616
:1053B0005DF8047B7047000080B584B000AF786072
:1053C0007B68002B01D101232BE17B6893F83D30F2
:1053D000DBB2002B06D17B68002283F83C20786882
:1053E000FCF762FC7B68242283F83D207B681B6805
:1053F0001A687B681B6822F001021A607B681B68D0
:105400001A687B681B6842F400421A607B681B685C
:105410001A687B681B6822F400421A6004F0C0FB23
:10542000F8607B685B68814A934207D8FB68804AD2
:10543000934294BF01230023DBB206E0FB687D4A60
:10544000934294BF01230023DBB2002B01D0012340
:10545000E7E0FB68784AA2FB03239B0CBB607B68F8
:105460001B685B6823F03F017B681B68BA680A43CE
:105470005A607B681B681B6A23F03F017B685B688E
:105480006A4A934202D8BB68013309E0BB684FF413
:10549000967202FB03F3694AA2FB03239B090133C3
:1054A0007A6812680B4313627B681B68DB6923F41C
:1054B0004F4222F0FF027B685B685C498B4219D83F
:1054C000FB68591E7B685B685B00B1FBF3F3591CFA
:1054D00040F6FC730B40002B0AD0FB68591E7B681A
:1054E0005B685B00B1FBF3F30133C3F30B0351E0E3
:1054F00004234FE07B689B68002B11D1FB68581E8A
:105500007B6859680B465B000B44B0FBF3F3013337
:10551000C3F30B03002B0CBF01230023DBB212E00B
:10552000FB68581E7B6859680B469B000B4499002A
:105530000B44B0FBF3F30133C3F30B03002B0CBF9D
:1055400001230023DBB2002B01D0012322E07B6882
:105550009B68002B0ED1FB68581E7B6859680B4670
:105560005B000B44B0FBF3F30133C3F30B0343F4D1
:1055700000430FE0FB68581E7B6859680B469B0090
:105580000B4499000B44B0FBF3F30133C3F30B035B
:1055900043F44043796809681343CB617B681B6817
:1055A0001B6823F0C0017B68DA697B681B6A1A43B9
:1055B0007B681B680A431A607B681B689B6823F43E
:1055C000034323F0FF037A6811697A68D2681143B4
:1055D0007A6812680B4393607B681B68DB6823F072
:1055E000FF017B685A697B689B691A437B681B686B
:1055F0000A43DA607B681B681A687B681B6842F0A4
:1056000001021A607B6800221A647B68202283F8FA
:105610003D207B6800221A637B68002283F83E20CD
:10562000002318461037BD4680BD00BFA08601008C
:105630007F841E00FF083D0083DE1B43D34D6210B4
:1056400080B483B000AF78607B681B685B6903F04F
:105650008003802B03D17B681B6800221A6100BF86
:105660000C37BD465DF8047B7047000080B588B0FC
:1056700002AFF860084611461A4603467B810B4686
:105680003B811346FB80FEF78FFF7861FB6893F840
:105690003D30DBB2202B40F0D9807B690093192389
:1056A00001226D49F86802F035F90346002B01D05C
:1056B0000223CCE0FB6893F83C30012B01D102239C
:1056C000C5E0FB68012283F83C20FB681B681B686F
:1056D00003F00103012B07D0FB681B681A68FB6805
:1056E0001B6842F001021A60FB681B681A68FB68BD
:1056F0001B6822F400621A60FB68212283F83D20B7
:10570000FB68402283F83E20FB6800221A64FB6895
:105710003A6A5A62FB68BA8C5A85FB685B8D9AB20A
:10572000FB681A85FB684D4ADA62F8883A897989FC
:105730007B690193BB6A00930346F86801F0C4FEDD
:105740000346002B52D0012381E07A69B96AF868D8
:1057500002F0FAF90346002B0DD0FB681B6C042BFA
:1057600007D1FB681B681A68FB681B6842F400726B
:105770001A6001236BE0FB685B6A1A78FB681B68A0
:105780001A61FB685B6A5A1CFB685A62FB681B8DD6
:10579000013B9AB2FB681A85FB685B8D9BB2013BAB
:1057A0009AB2FB685A85FB681B685B6903F00403C7
:1057B000042B1BD1FB681B8D002B17D0FB685B6A89
:1057C0001A78FB681B681A61FB685B6A5A1CFB68E5
:1057D0005A62FB681B8D013B9AB2FB681A85FB6815
:1057E0005B8D9BB2013B9AB2FB685A85FB681B8DAF
:1057F000002BAAD17A69B96AF86802F0EDF903467C
:10580000002B0DD0FB681B6C042B07D1FB681B68B9
:105810001A68FB681B6842F400721A60012316E0E4
:10582000FB681B681A68FB681B6842F400721A6008
:10583000FB68202283F83D20FB68002283F83E208D
:10584000FB68002283F83C20002300E00223184676
:105850001837BD4680BD00BF020010000000FFFFEA
:1058600080B58CB002AFF860084611461A46034670
:105870007B810B463B811346FB80FEF795FE7862E9
:10588000FB6893F83D30DBB2202B40F014827B6A3A
:105890000093192301227B49F86802F03BF8034684
:1058A000002B01D0022307E2FB6893F83C30012B68
:1058B00001D1022300E2FB68012283F83C20FB684F
:1058C0001B681B6803F00103012B07D0FB681B68F2
:1058D0001A68FB681B6842F001021A60FB681B68CB
:1058E0001A68FB681B6822F400621A60FB682222B7
:1058F00083F83D20FB68402283F83E20FB680022AD
:105900001A64FB683A6B5A62FB68BA8E5A85FB6868
:105910005B8D9AB2FB681A85FB685B4ADA62F8888D
:105920003A8979897B6A0193BB6B00930346F868D7
:1059300001F060FE0346002B01D00123BCE1FB68AF
:105940001B8D002B13D100233B62FB681B685B6936
:105950003B62FB681B689B693B623B6AFB681B6898
:105960001A68FB681B6842F400721A6090E1FB68D9
:105970001B8D012B1BD1FB681B681A68FB681B6819
:1059800022F480621A600023FB61FB681B685B697C
:10599000FB61FB681B689B69FB61FB69FB681B681B
:1059A0001A68FB681B6842F400721A6070E1FB68B9
:1059B0001B8D022B1BD1FB681B681A68FB681B68D8
:1059C00022F480621A60FB681B681A68FB681B6817
:1059D00042F400621A600023BB61FB681B685B69CC
:1059E000BB61FB681B689B69BB61BB6950E100231D
:1059F0007B61FB681B685B697B61FB681B689B695B
:105A00007B617B6944E1FB681B8D032B00F2F18015
:105A1000FB681B8D012B23D17A6AB96BF86802F001
:105A200055F90346002B01D0012345E1FB681B68B3
:105A30001A69FB685B6AD2B21A70FB685B6A5A1C0F
:105A4000FB685A62FB681B8D013B9AB2FB681A85A2
:105A5000FB685B8D9BB2013B9AB2FB685A8517E1EC
:105A6000FB681B8D022B4ED17B6A0093BB6B00221F
:105A70000649F86801F04EFF0346002B08D00123C9
:105A80001AE100BF020010000000FFFF0400010047
:105A9000FB681B681A68FB681B6842F400721A6096
:105AA000FB681B681A69FB685B6AD2B21A70FB68F4
:105AB0005B6A5A1CFB685A62FB681B8D013B9AB2F9
:105AC000FB681A85FB685B8D9BB2013B9AB2FB6851
:105AD0005A85FB681B681A69FB685B6AD2B21A7048
